:100000008AC00000BFC00000BDC00000BBC000002F
:10001000B9C00000B7C00000B5C00000B3C0000008
:10002000B1C00000AFC00000ADC000000C94A90931
:100030000C94520AA7C00000A5C00000A3C0000095
:10004000A1C000009FC000009DC0000014C60000B9
:1000500099C0000097C0000095C00000D2C5000004
:1000600091C000008FC000008DC000008BC0000058
:1000700089C0000075048804A004BD04E5043105AE
:100080003E055905CF054C05B905BC0ADE0AC60B6D
:10009000DE0AC60B230B450BC60B980BAA0B0E03EF
:1000A0005500530042003200410058000000120386
:1000B00058006500760065006C0061006200730006
:1000C00000000403090409023E00020100C03209D5
:1000D00004000001020201000524001001042402B2
:1000E000060524060001070582030800FF09040134
:1000F00000020A0000000705040210000107058342
:10010000021000011201100102000008D016A7061B
:1001100001000102DC0111241FBECFEFD4E0DEBFDD
:10012000CDBF04B603FE18C080915F0390916003B9
:10013000A0916103B09162038F3E9E4BAD4ABB40DC
:1001400059F410925F0310926003109261031092B1
:100150006203E0E0F8E3099511E0A0E0B1E0E0E43B
:10016000F9E102C005900D92AC33B107D9F723E055
:10017000ACE3B1E001C01D92AF35B207E1F7BFD5E6
:100180000C949E0C3DCFA1C1AF92BF92CF92DF9253
:10019000EF92FF920F931F93CF93DF9300D0CDB7D1
:1001A000DEB7182FF42E842F90E05C012FEFA20E03
:1001B000B11CA10EB11C8FEF69837A83CED18FEF72
:1001C000CCD18DEFCAD182E08F0DC7D1812FC5D19F
:1001D0006981E62E062F7A81172F802F8E198F15B1
:1001E00050F46801F80181918F01B7D1F601808147
:1001F000A80EB11CF2CF8A2D80950F900F90DF9141
:10020000CF911F910F91FF90EF90DF90CF90BF9013
:10021000AF90A3C110923D0120911201909146012F
:10022000981720F490913D012917C0F7909146014D
:10023000981312C0E4EDF2E020E082E08E1B382F2C
:100240003E0F391718F43191230FF9CF81E090E078
:100250002F3F21F080E0089580E090E008951F9303
:10026000CF93DF93C82F162FD42F10924601EBD1D6
:100270008FEFC5D28FEFC3D28C2FC1D284E0BFD213
:1002800082E0BDD2812FBBD28D2FB9D22C2F30E08E
:100290002A5F3F4F210F311DC9018D0F911D8095A0
:1002A000AED2C9D186E08D0FDF91CF911F91B2CF31
:1002B0007F928F929F92AF92BF92CF92DF92EF92F6
:1002C000FF920F931F93CF93DF938C0181E0809374
:1002D0004501F801708091808EEF882E860E8FEF99
:1002E0003CD18FEF3AD18DEF38D1892D682D0E9406
:1002F000F90BC82F82E08C0F30D180E02ED1C15095
:100300007801F2E0EF0EF11C6701D5E097EDA92E20
:1003100092E0B92E8C2D8E19881550F5492D672D38
:10032000F60181916F019BDF892B11F410E018C059
:1003300007ED12E0802F8A19891560F7F801819185
:100340008F01C80F0AD1D03110F4DF5FF3CF23D172
:10035000D0E0F0CF8FEF01D1D03128F4DF5F1F5F05
:100360001911F8CF03C017D1D0E0F9CFC919D2CFF6
:100370008C2F8095F2D010924501DF91CF911F9183
:100380000F91FF90EF90DF90CF90BF90AF909F9034
:100390008F907F900895462F90E09C01260F311D8D
:1003A000662319F02331310528F040E060E070E069
:1003B00088E004C0BC01625F7E4F80E0E5CE44234C
:1003C000C9F0A82FB0E09D01240F311D2331310564
:1003D00088F4843078F0962FA450BF4FFB018E2F05
:1003E000891B841728F421918D912817C0F702C02A
:1003F00081E0089580E008950F931F93CF93DF93DA
:10040000C82F8B01D42FDBDF811105C040E060E0F5
:1004100070E088E00EC08C2F90E04D2F50E0B801C6
:10042000825F9E4F0E94570C53D040E060E070E026
:1004300080E0DF91CF911F910F91A6CE292F332716
:100440002230310559F02330310569F02130310572
:10045000F9F482E190E024E031E01EC08EE390E008
:1004600026EC30E019C099278130910541F08230A7
:10047000910541F0892B61F4E2ECF0E005C0EEEA71
:10048000F0E002C0EEE9F0E0849190E09F0104C04A
:1004900080E090E020E030E0FA013183208308958D
:1004A00080E090E00E94700C6F3E7E4B8140914056
:1004B00051F44EE050E064E070E082E191E00E948F
:1004C000600C81E0089580E00895F999FECFE8CFAF
:1004D0004EE050E064E070E082E191E00E94750C33
:1004E0004FEE5EEB61E071E080E090E00C94960CE2
:1004F00040E050E0BA0180E090E00C94960C9091BE
:10050000E00091609093E000F89490E0EFEFF9EF55
:100510003197F1F700C000009F5F9038B9F788234A
:1005200061F08FEE9EEBADEABBE080935F039093AA
:100530006003A0936103B09362039CE088E10FB66F
:10054000F894A895809360000FBE90936000FFCF51
:100550009BB19F79892B8BB90895E6E4F2E02FB720
:10056000F894A081B1818C938081918101969183CF
:100570008083468157818417950721F48481958172
:1005800091838083828593850196938782872FBF8D
:1005900010923E01089583E08093E9008091E80085
:1005A00080FF48C09FB7F894809150029FBF882376
:1005B000B1F1803130F420913E01909113019217F6
:1005C000C8F510923E01813108F080E146E452E026
:1005D0008150D8F0FA016FB7F894A281B3819D9150
:1005E000B383A28326813781A217B30721F4248124
:1005F0003581338322832285338521503109338726
:1006000022876FBF9093F100E3CF8091E80085FBD4
:10061000992790F981E089278093470106C080914E
:100620004701882339F0109247018091E8008E77C6
:100630008093E80008958091C80086FFFCCF80E990
:100640008093C900089588E08093C90008954F926F
:100650005F926F927F928F929F92AF92BF92CF9252
:10066000DF92EF92FF92CF93DF93CDB7DEB72C9757
:100670000FB6F894DEBF0FBECDBF6B017C011092A8
:10068000C9001092C80086E08093CA00C701B60175
:1006900022E030E040E050E00E94350C29013A01B0
:1006A000CA01B901605C7D4B804F9F4FA701960145
:1006B0000E94130CDA01C9010197A109B1098983CC
:1006C0009A83AB83BC8384E0220F331F441F551FE2
:1006D0008A95D1F760E074E284EF90E00E94130CF9
:1006E00049015A01C301B20160587B47814E9F4FB7
:1006F000A70196010E94130CDA01C9010197A10913
:10070000B10989879A87AB87BC8793E0220F331F93
:10071000441F551F9A95D1F760E074E284EF90E092
:100720000E94130CD501C4018C149D04AE04BF04B7
:1007300014F4D701C6018D829E82AF82B886C81498
:10074000D904EA04FB0424F4CD82DE82EF82F88629
:100750002C013D018D809E80AF80B88448185908D7
:100760006A087B084D825E826F827886DA01C90151
:100770002C153D054E055F0514F4D701C601BA01DD
:10078000A901C416D506E606F70614F4B701A601BA
:10079000841B950BA60BB70B2D813E814F8158858D
:1007A00082179307A407B5073CF049815A815093FB
:1007B000CD004093CC000BC089859A859093CD00E5
:1007C0008093CC008091C80082608093C80080E94B
:1007D0008093C9002C960FB6F894DEBF0FBECDBF34
:1007E000DF91CF91FF90EF90DF90CF90BF90AF90CF
:1007F0009F908F907F906F905F904F900895909111
:10080000C80095FFFCCF8093CE008091C800806423
:100810008093C8000895EF92FF921F93CF93DF93C8
:10082000182F882319F088E08093C90082E5E82E0C
:1008300082E0F82EE7018C2F8E19811718F4899128
:10084000DEDFF9CFDF91CF911F91FF90EF900895F8
:1008500080914101E82FF0E0EF5AFD4F90819F3FDA
:1008600051F48150D8DF81E08093440180934101AD
:1008700010923F010895CFDF1092440108956F92C6
:100880007F928F929F92AF92BF92CF92DF92EF9220
:10089000FF920F931F93CF93DF9380E291E0BFD23B
:1008A000182F811105C08091440181117DC187C13C
:1008B000C0E008E0D7E086E0F82E95E0E92E29E0D8
:1008C000D22E3AE0C32E44E0B42E53E0A52E62E0CF
:1008D000962EE09144018E2F90E08B30910508F028
:1008E0005EC1FC01E65CFF4FDCC780E291E0BCD258
:1008F000809352028F3F31F481E0809344018093D2
:1009000041011BC00093C9008091520278DF47C1AA
:100910008090410181E0880D8093410180E291E067
:10092000A3D2E82DF0E0EE5AFD4F80838091530270
:100930008F3F09F042C09092440110923F012FC1B5
:100940008090410181E0880D8093410180E291E037
:100950008BD2E82DF0E0EE5AFD4F80838091540257
:100960008F3F41F48091410181508093410181E0AA
:1009700052DFE3CFA0924401E0CF8090410181E0BB
:10098000880D8093410180E291E06ED2E82DF0E085
:10099000EE5AFD4F8083809154028D5F823078F44F
:1009A0008091550282508A3718F4B0924401C5CF25
:1009B00040E060E070E088E0E7DB4ADFF0C0809173
:1009C000410129DFC0924401B8CF8090410181E00C
:1009D000880D8093410180E291E046D2E82DF0E05D
:1009E000EE5AFD4F80838091560220915402843844
:1009F00071F4D093440130E02C573F4F8091550261
:100A0000280F311D309343012093420196CF2D3F93
:100A1000A1F6813019F4D09244018FCF863021F4B1
:100A2000E09244015E9A89CF883019F4F092440133
:100A300084CF823041F4D09344018091550290E0FC
:100A400081509F4F09C0833009F0B7CFD093440144
:100A50008091550290E093959093430180934201D9
:100A60006CCF80E291E000D2809357028A3F09F078
:100A7000A4CF80E06DDD3CDD80E00CC080E291E041
:100A8000F3D180935702883F09F097CF5E9880E0BA
:100A90005FDD81E034DD83C080E291E0E5D18093C9
:100AA00057028F3F09F089CF40E060E070E080E0BE
:100AB00045C060904101712C80E291E0D5D1F301F5
:100AC000EE5AFD4F808380914101E82FF0E0EE5A0D
:100AD000FD4F90812091420130914301290F311D3A
:100AE00030934301209342018F5F80934101109224
:100AF0003F0140915502642F70E06D5F7F4F90E0A1
:100B0000681779070CF04BC02F3F09F056CF809142
:100B100056028438D9F480915802882359F090E025
:100B20008B3791053CF46CEF640F70E06BD6863E1A
:100B3000910534F040E060E070E088E025DB16C00D
:100B40006EEF640F87E592E0B3DB10C0823031F4C2
:100B500060915802809157021EDC08C0833031F446
:100B6000435068E572E08091570246DC10924401E0
:100B700016C00093C90080E291E076D140DE8091FA
:100B800041018F5F8093410110923F0120915502F6
:100B900030E02D5F3F4F90E0281739073CF3CF5FDF
:100BA000C11708F496CE7FCE90913F018091140139
:100BB000891728F4809141012EDE10924401809122
:100BC000C90083FF0FC0DF91CF911F910F91FF905C
:100BD000EF90DF90CF90BF90AF909F908F907F90DD
:100BE0006F9029CDDF91CF911F910F91FF90EF90E2
:100BF000DF90CF90BF90AF909F908F907F906F903D
:100C000008951F920F920FB60F9211242F933F93C6
:100C10004F935F936F937F938F939F93AF93BF9304
:100C2000EF93FF938091CE0090914501911102C006
:100C300094DC10C09091460197FD0AC0E0914601F6
:100C400091E09E0F90934601F0E0EE52FD4F8083BD
:100C500010923D01FF91EF91BF91AF919F918F91C4
:100C60007F916F915F914F913F912F910F900FBEA8
:100C70000F901F9018951F920F920FB60F9211248C
:100C80008F9380913F018F5F80933F0180913E0160
:100C90008F5F80933E0180913D018F5F80933D0186
:100CA0008F910F900FBE0F901F90189584B7877F7C
:100CB00084BF0FB6F894A8958091600088618093F6
:100CC0006000109260000FBE90E080E80FB6F894CC
:100CD00080936100909361000FBE8AB180668AB9EB
:100CE0008BB18F798BB926D382E084BD85BD87E235
:100CF00087BDEEE6F0E08081826080830895D6DFD4
:100D000042DA209A219A229A239AE6E4F2E02FB757
:100D1000F89488E491E09183808393838283958320
:100D2000848386E492E0978386838EEF90E09187B8
:100D30008087138612862FBF80E00ADC7894529851
:100D40005A9A53985B9A809156038430E1F797DD65
:100D500022DC35D5F8CF80E4FBCB80E0F9CB80E214
:100D600091E038D0811102C080E601C080E2F0CB72
:100D700080E291E0A7C0CF93DF93EC016C897D897D
:100D80008E899F8964DC8C899D89AE89BF89803B6F
:100D90009440A105B10519F481E080934001DF91F1
:100DA000CF910895CF93FC01808991898170992713
:100DB000C82FC17020913C01222341F0892B31F4CE
:100DC00080914001882311F081E099DBC0933C01C0
:100DD000CF910895CF93DF93EC01FC0170968BE0E7
:100DE000DF011D928A95E9F782E08C83898783E091
:100DF0008E8761E0CE010196FCD1882361F061E02D
:100E0000CE010696F6D1882331F061E0CE010B9633
:100E1000DF91CF91EEC180E0DF91CF9108952091D5
:100E200056032430D1F4FC014489558966897789B9
:100E3000452B462B472B89F086818F708093E900E4
:100E40008091E80082FF09C08091F200811108C002
:100E50008091E8008B778093E80080E090E008952F
:100E60008091F20090E0089520915603243019F00B
:100E70008FEF9FEF0895FC01448955896689778932
:100E8000452B462B472BA1F386818F708093E90079
:100E90008091E80082FFECCF8091F200882321F05E
:100EA0002091F10030E002C02FEF3FEF8091F2007F
:100EB000811105C08091E8008B778093E800C9011B
:100EC00008950895CF93DF93EC018091E80083FFAC
:100ED000A6C0888190E020915B0330915C032817C5
:100EE000390709F09CC080915803813261F020F4E9
:100EF000803209F43EC093C0823209F46CC0833260
:100F000009F47DC08CC080915703813A09F087C0F5
:100F10008091E800877F8093E8008091E80080FF5F
:100F2000FCCF8C899D89AE89BF898093F100492FC0
:100F30005A2F6B2F77274093F100AD016627772753
:100F40004093F1008B2F9927AA27BB278093F100AC
:100F5000888D8093F100898D8093F1008A8D809334
:100F6000F1008091E8008E778093E800DF91CF91C7
:100F700089C180915703813209F051C08091E80006
:100F8000877F8093E8008091E80082FD05C0809112
:100F900056038111F8CF43C03091F1002091F10048
:100FA0009091F1008091F1003C8B2D8B9E8B8F8B6B
:100FB0008091F100888F8091F100898F8091F100FC
:100FC0008A8F8091E8008B778093E8005BD1CE0117
:100FD000DF91CF91D0CE80915703813201F580917E
:100FE000E800877F8093E8004DD18091590390916C
:100FF0005A03998B888BCE01DF91CF91D3CE80910C
:101000005703813261F48091E800877F8093E80084
:1010100039D160915903CE01DF91CF9152CFDF9149
:10102000CF91089520915D0330915E032617370715
:1010300048F06115710539F42091E8002E7720936E
:10104000E80001C0B90140E06115710581F120910E
:1010500056032223E9F12530E9F12091E80023FD30
:1010600035C02091E80022FD2BC02091E80020FF30
:10107000EBCF2091F20030E0FC01CF01611571054A
:1010800059F02830310540F481918093F10061508E
:1010900071092F5F3F4FF1CF41E02830310509F052
:1010A00040E02091E8002E772093E800CDCF411159
:1010B000CECF06C080915603882351F0853051F081
:1010C0008091E80082FFF6CF80E0089581E00895E6
:1010D00082E0089583E0089520915D0330915E03DE
:1010E0002617370748F06115710539F42091E8009B
:1010F0002E772093E80001C0B901FC0120E06115C2
:10110000710569F1809156038823D1F18530D1F1C1
:101110008091E80083FD32C08091E80082FD28C004
:101120008091E80080FFEBCF8091F20090E06115A4
:10113000710559F08830910540F424912093F10015
:101140003196615071090196F2CF21E0089709F0BC
:1011500020E08091E8008E778093E800D0CF2111C5
:10116000D1CF06C080915603882351F0853051F0CD
:101170008091E80082FFF6CF80E0089581E0089535
:1011800082E0089583E00895982F953058F5909364
:10119000E900981739F07091EC002091ED00509122
:1011A000F00003C0242F762F50E021FF19C03091AA
:1011B000EB003E7F3093EB003091ED003D7F3093AC
:1011C000ED003091EB0031603093EB007093EC0058
:1011D0002093ED005093F0002091EE0027FF07C010
:1011E0009F5FD3CF8F708093E90081E0089580E006
:1011F0000895EF92FF920F931F93CF93DF93E62E04
:10120000EC018C010C5F1F4FF12CFE1499F19881B9
:10121000992359F1F801208169817A8131973081D0
:10122000892F8F70853010F080E025C0223010F4B7
:1012300042E001C046E0E8E0F0E020E0E617F70712
:1012400020F42F5FEE0FFF1FF9CF2295207F422B56
:10125000232F2295220F220F207C991F9927991F57
:10126000622F692B91DF8823F9F2F39425960B5FA7
:101270001F4FCBCF81E0DF91CF911F910F91FF9056
:10128000EF9008958091570387FF11C08091E80087
:1012900082FD05C0809156038111F8CF11C0809165
:1012A000E8008B770BC080915603882349F080912A
:1012B000E80080FFF8CF8091E8008E778093E80007
:1012C000089541D043D08091D8008F778093D80083
:1012D0008091D80080688093D8008091D8008F7D5D
:1012E0008093D80084E089BD86E089BD09B400FE02
:1012F000FDCF109256031092520310925403109295
:10130000530342E060E080E03FDF8091E1008E7FA8
:101310008093E1008091E20081608093E2008091FF
:10132000E20088608093E2008091E0008E7F8093ED
:10133000E0000895E3E6F0E080818E7F808381E025
:1013400080935503BECF1092E20008951092E10001
:1013500008951F920F920FB60F9211242F933F936F
:101360004F935F936F937F938F939F93AF93BF93AD
:10137000EF93FF938091E10082FF0AC08091E20029
:1013800082FF06C08091E1008B7F8093E10016D23E
:101390008091E10080FF17C08091E20080FF13C0C0
:1013A0008091E2008E7F8093E2008091E200806174
:1013B0008093E2008091D80080628093D80019BCAD
:1013C00010925603CADC8091E10084FF2FC0809107
:1013D000E20084FF2BC084E089BD86E089BD09B4AA
:1013E00000FEFDCF8091D8008F7D8093D800809142
:1013F000E1008F7E8093E1008091E2008F7E8093F8
:10140000E2008091E20081608093E20080915203CB
:10141000882311F084E007C08091E30087FD02C0BB
:1014200081E001C083E08093560395DC8091E10068
:1014300083FF27C08091E20083FF23C08091E100F9
:10144000877F8093E10082E08093560310925203DD
:101450008091E1008E7F8093E1008091E2008E7F99
:101460008093E2008091E20080618093E20042E09C
:1014700060E080E089DE8091F00088608093F00079
:101480009DD1FF91EF91BF91AF919F918F917F91EE
:101490006F915F914F913F912F910F900FBE0F90E1
:1014A0001F9018951F920F920FB60F9211242F9331
:1014B0003F934F935F936F937F938F939F93AF93DC
:1014C000BF93CF93DF93EF93FF93C091E900CF7069
:1014D0008091EC00D82FD17080FDD0E81092E90007
:1014E0008091F000877F8093F00078941ED0109256
:1014F000E9008091F00088608093F000CD2BCF70E0
:10150000C093E900FF91EF91DF91CF91BF91AF912F
:101510009F918F917F916F915F914F913F912F910B
:101520000F900FBE0F901F9018951F93CF93DF93CE
:10153000CDB7DEB7AA970FB6F894DEBF0FBECDBF0A
:10154000E7E5F3E088E08E0F9091F10091938E1320
:10155000FBCF0EDC8091E80083FF18C18091570318
:1015600090915803492F50E04A30510508F00EC1C0
:10157000FA01EB5BFF4F95C1803881F0823809F0AA
:1015800005C180915B038F708093E9008091EB002F
:1015900085FB882780F91092E90006C080915303EB
:1015A00090915403911182609091E800977F9093FD
:1015B000E8008093F1001092F100C5C0282F2D7F24
:1015C00009F0E4C0882319F0823061F0DFC0809117
:1015D0005903813009F0DAC0933009F080E080933C
:1015E00054032BC080915903811127C080915B0364
:1015F0008F7009F4CBC08093E9002091EB0020FFAD
:101600001CC0933021F48091EB00806214C0909153
:10161000EB0090619093EB0021E030E0A90102C063
:10162000440F551F8A95E2F74093EA001092EA00B2
:101630008091EB0088608093EB001092E90080912C
:10164000E800877F83C08111A1C0109159031F77E3
:101650008091E3008078812B8093E3008091E80003
:10166000877F8093E8000EDE8091E80080FFFCCF4A
:101670008091E30080688093E300111102C082E052
:1016800001C083E08093560381C08058823008F007
:101690007DC08091590390915A038C3D53E095078A
:1016A00071F583E08A838AE289834FB7F894DE017B
:1016B000139620E03EE051E2E32FF0E05093570014
:1016C000E49120FF03C0E295EF703F5FEF708E2F33
:1016D00090E0EA3010F0C79601C0C0968D939D93BC
:1016E0002F5F243149F74FBF8091E800877F8093B7
:1016F000E8006AE270E0CE01019694DC13C0AE010E
:101700004F5F5F4F60915B030E941E02BC01892BFB
:1017100009F43CC09091E800977F9093E80089819C
:101720009A81DADC8091E8008B778093E8002EC004
:10173000803861F58091E800877F8093E800809190
:1017400052038093F1008091E8008E778093E80047
:1017500099DD1CC081111AC0909159039230B0F4E8
:101760008091E800877F8093E800909352038ADDA0
:1017700080915203811106C08091E30087FD02C071
:1017800081E001C084E080935603E9DA8091E800AB
:1017900083FF0AC08091E800877F8093E8008091F2
:1017A000EB0080628093EB00AA960FB6F894DEBF40
:1017B0000FBECDBFDF91CF911F9108950895CF93B4
:1017C00080915603882399F0C091E900CF709091E1
:1017D000EC00892F817090FD80E8C82B1092E90001
:1017E0008091E80083FDA1DECF70C093E900CF9126
:1017F0000895002480FD060E660F11F08695D1F73E
:10180000802D08950024552704C0080E591F880F05
:10181000991F009729F076956795B8F37105B9F788
:10182000802D952F0895A1E21A2EAA1BBB1BFD0146
:101830000DC0AA1FBB1FEE1FFF1FA217B307E407AF
:10184000F50720F0A21BB30BE40BF50B661F771F07
:10185000881F991F1A9469F76095709580959095E7
:101860009B01AC01BD01CF010895052E97FB16F435
:1018700000940FD057FD05D0D6DF07FC02D046F408
:1018800008C050954095309521953F4F4F4F5F4F81
:10189000089590958095709561957F4F8F4F9F4FDC
:1018A0000895EE0FFF1F0590F491E02D0994FB01C0
:1018B000DC0102C001900D9241505040D8F70895CC
:1018C000DC01CB01FC01F999FECF06C0F2BDE1BD00
:1018D000F89A319600B40D9241505040B8F70895EF
:1018E000A6E1B0E044E050E0EDCFDC01A40FB51F6D
:1018F0004150504040F0CB01840F951F2E9105D0F0
:1019000041505040D8F70895262FF999FECF92BD47
:1019100081BDF89A019700B4021639F01FBA20BDB4
:101920000FB6F894FA9AF99A0FBE08950396272FE6
:10193000ECDFEADF252FE9DF242FE7CFF894FFCF94
:1019400008000A0000000000000000000000014242
:1019500005FD3204640000000000000000000000EB
:101960000083100000010410000001820800000143
:0C1970000000000000000000000000006B
:00000001FF
